S00B00007370692E73726563CD
S11300000C942A000C9434000C9434000C943400A6
S11300100C9434000C9434000C9434000C9434008C
S11300200C9434000C9434000C9434000C9434007C
S11300300C9434000C9436000C9434000C9434006A
S11300400C9434000C9434000C9434000C9434005C
S11300500C94340011241FBECFE5D8E0DEBFCDBF21
S11300600E94A9000C9415030C9400001F920F9297
S11300700FB60F9211242F933F934F935F936F9377
S11300807F938F939F93AF93BF93EF93FF938CB121
S11300908136C9F485B3816085BB85B3897F85BB0F
S11300A08FE39CE90197F1F700C0000081E60E940C
S11300B038019FEF20E782E0915020408040E1F733
S11300C000C0000035C08236C9F485B3826085BBA8
S11300D085B38A7F85BB8FE39CE90197F1F700C064
S11300E0000082E60E9438019FEF20E782E09150F1
S11300F020408040E1F700C000001AC08336C1F4FC
S113010085B3846085BB85B38C7F85BB8FE39CE915
S11301100197F1F700C0000083E60E9438019FEFC9
S113012020E782E0915020408040E1F700C00000C9
S1130130FF91EF91BF91AF919F918F917F916F91BB
S11301405F914F913F912F910F900FBE0F901F9091
S1130150189561E083E00E943C0180E80E946901F7
S11301608AB38F718ABB84B3876084BB7894CF9B36
S113017013C08FE39CE90197F1F700C0000081E60A
S11301800E9438019FEF20E782E091502040804098
S1130190E1F700C00000EBCFCE9B13C08FE39CE9D6
S11301A00197F1F700C0000082E60E9438019FEF3A
S11301B020E782E0915020408040E1F700C0000039
S11301C0D6CFCD9BD4CF8FE39CE90197F1F700C044
S11301D0000083E60E9438019FEF20E782E09150FF
S11301E020408040E1F700C00000C1CF811104C06D
S11301F08DB18C7F8DB90895813039F48DB18C7FA8
S11302008DB98DB181608DB90895823039F48DB185
S11302108E7F8DB98DB182608DB90895833039F4A4
S11302208DB18E7F8DB98DB183608DB90895843081
S113023039F48DB181608DB98DB18C7F8DB90895FC
S1130240853039F48DB181608DB98DB18D7F8DB9D3
S11302500895863039F48DB183608DB98DB18E7F68
S11302608DB90895873019F48DB183608DB90895DF
S11302708FB9779BFECF089597B3906B97BB0E947D
S1130280F6008DB180618DB98DB180648DB908950A
S1130290682F70E080E090E00E9489029B01AC012D
S11302A060E070E080E891E40E94DF019B01AC0112
S11302B060E074E284E79BE40E94DF0120E030E028
S11302C040E85FE30E9472010E94510269B970BD67
S11302D008959AB190619AB90E9448018AB18068E0
S11302E08AB908955058BB27AA270E948A010C9402
S11302F0DB020E94CD0238F00E94D40220F039F4CF
S11303009F3F19F426F40C94CA020EF4E095E7FB1F
S11303100C94C402E92F0E94EC0258F3BA17620746
S113032073078407950720F079F4A6F50C940E035F
S11303300EF4E0950B2EBA2FA02D0B01B9019001FC
S11303400C01CA01A0011124FF27591B99F0593F40
S113035050F4503E68F11A16F040A22F232F342F88
S11303604427585FF3CF469537952795A795F040D6
S11303705395C9F77EF41F16BA0B620B730B840BEB
S1130380BAF09150A1F0FF0FBB1F661F771F881FA3
S1130390C2F70EC0BA0F621F731F841F48F48795FB
S11303A077956795B795F7959E3F08F0B0CF9395ED
S11303B0880F08F09927EE0F9795879508950E9466
S11303C0F3010C94DB020E94D40258F00E94CD0287
S11303D040F029F45F3F29F00C94C40251110C94AD
S11303E00F030C94CA020E94EC0268F39923B1F340
S11303F0552391F3951B550BBB27AA276217730747
S1130400840738F09F5F5F4F220F331F441FAA1FDA
S1130410A9F335D00E2E3AF0E0E832D09150504096
S1130420E695001CCAF72BD0FE2F29D0660F771F44
S1130430881FBB1F261737074807AB07B0E809F02A
S1130440BB0B802DBF01FF2793585F4F3AF09E3FAF
S1130450510578F00C94C4020C940F035F3FE4F34D
S1130460983ED4F3869577956795B795F7959F5FF2
S1130470C9F7880F911D9695879597F90895E1E03E
S1130480660F771F881FBB1F621773078407BA079D
S113049020F0621B730B840BBA0BEE1F88F7E095F8
S11304A008950E9458026894B1110C940F030895A2
S11304B00E94F40288F09F5798F0B92F9927B751FA
S11304C0B0F0E1F0660F771F881F991F1AF0BA95F4
S11304D0C9F714C0B13091F00E940E03B1E0089541
S11304E00C940E03672F782F8827B85F39F0B93F33
S11304F0CCF3869577956795B395D9F73EF49095A7
S11305008095709561957F4F8F4F9F4F0895E89424
S113051009C097FB3EF490958095709561957F4F47
S11305208F4F9F4F9923A9F0F92F96E9BB279395F5
S1130530F695879577956795B795F111F8CFFAF405
S1130540BB0F11F460FF1BC06F5F7F4F8F4F9F4F36
S113055016C0882311F096E911C0772321F09EE894
S1130560872F762F05C0662371F096E8862F70E0FA
S113057060E02AF09A95660F771F881FDAF7880FD4
S11305809695879597F9089597F99F6780E870E0A5
S113059060E008959FEF80EC089500240A941616F5
S11305A0170618060906089500240A94121613065D
S11305B0140605060895092E0394000C11F48823EB
S11305C052F0BB0F40F4BF2B11F460FF04C06F5F07
S11305D07F4F8F4F9F4F089557FD9058440F551FDD
S11305E059F05F3F71F04795880F97FB991F61F0B1
S11305F09F3F79F087950895121613061406551F28
S1130600F2CF4695F1DF08C0161617061806991F93
S1130610F1CF86957105610508940895E894BB2788
S111062066277727CB0197F90895F894FFCF4A
S9030000FC
