:100000000C942A000C9434000C9434000C943400AA
:100010000C9434000C9434000C9434000C94340090
:100020000C9434000C9434000C9434000C94340080
:100030000C9436000C9434000C9434000C9434006E
:100040000C9434000C9434000C9434000C94340060
:100050000C94340011241FBECFE5D8E0DEBFCDBF25
:100060000E9466000C949E000C9400001F920F9258
:100070000FB60F9211248F938FB1813651F485B34F
:10008000816085BB85B38D7F85BB85B38B7F85BB49
:1000900017C0823651F485B38E7F85BB85B38260ED
:1000A00085BB85B38B7F85BB0BC0833649F485B395
:1000B0008E7F85BB85B38D7F85BB85B3846085BB13
:1000C0008F910F900FBE0F901F90189584B387608B
:1000D00084BB41E060E084E00E948E000E948A00C0
:1000E0007894FFCF882331F0813039F48DB180616D
:1000F0008DB908958DB18F7E8DB90895813021F429
:100100008DB18F7D8DB90895823019F48DB18062E3
:100110008DB908958DB180688DB90895CF93862FDC
:10012000C42F97B3906497BB9DB190649DB90E9412
:1001300072008C2F0E947E00CF910895F894FFCF1B
:00000001FF
